{
  "_format": "hh-sol-artifact-1",
  "contractName": "LSP8Mintable",
  "sourceName": "contracts/LSP8MintableV2.sol",
  "abi": [
    {
      "inputs": [
        {
          "internalType": "string",
          "name": "name_",
          "type": "string"
        },
        {
          "internalType": "string",
          "name": "symbol_",
          "type": "string"
        },
        {
          "internalType": "address",
          "name": "newOwner_",
          "type": "address"
        }
      ],
      "stateMutability": "nonpayable",
      "type": "constructor"
    },
    {
      "inputs": [],
      "name": "LSP8CannotSendToAddressZero",
      "type": "error"
    },
    {
      "inputs": [],
      "name": "LSP8CannotUseAddressZeroAsOperator",
      "type": "error"
    },
    {
      "inputs": [],
      "name": "LSP8InvalidTransferBatch",
      "type": "error"
    },
    {
      "inputs": [
        {
          "internalType": "bytes32",
          "name": "tokenId",
          "type": "bytes32"
        }
      ],
      "name": "LSP8NonExistentTokenId",
      "type": "error"
    },
    {
      "inputs": [
        {
          "internalType": "bytes32",
          "name": "tokenId",
          "type": "bytes32"
        },
        {
          "internalType": "address",
          "name": "caller",
          "type": "address"
        }
      ],
      "name": "LSP8NotTokenOperator",
      "type": "error"
    },
    {
      "inputs": [
        {
          "internalType": "address",
          "name": "tokenOwner",
          "type": "address"
        },
        {
          "internalType": "bytes32",
          "name": "tokenId",
          "type": "bytes32"
        },
        {
          "internalType": "address",
          "name": "caller",
          "type": "address"
        }
      ],
      "name": "LSP8NotTokenOwner",
      "type": "error"
    },
    {
      "inputs": [
        {
          "internalType": "address",
          "name": "tokenReceiver",
          "type": "address"
        }
      ],
      "name": "LSP8NotifyTokenReceiverContractMissingLSP1Interface",
      "type": "error"
    },
    {
      "inputs": [
        {
          "internalType": "address",
          "name": "tokenReceiver",
          "type": "address"
        }
      ],
      "name": "LSP8NotifyTokenReceiverIsEOA",
      "type": "error"
    },
    {
      "inputs": [
        {
          "internalType": "bytes32",
          "name": "tokenId",
          "type": "bytes32"
        }
      ],
      "name": "LSP8TokenIdAlreadyMinted",
      "type": "error"
    },
    {
      "anonymous": false,
      "inputs": [
        {
          "indexed": true,
          "internalType": "address",
          "name": "operator",
          "type": "address"
        },
        {
          "indexed": true,
          "internalType": "address",
          "name": "tokenOwner",
          "type": "address"
        },
        {
          "indexed": true,
          "internalType": "bytes32",
          "name": "tokenId",
          "type": "bytes32"
        }
      ],
      "name": "AuthorizedOperator",
      "type": "event"
    },
    {
      "anonymous": false,
      "inputs": [
        {
          "indexed": true,
          "internalType": "bytes32",
          "name": "dataKey",
          "type": "bytes32"
        }
      ],
      "name": "DataChanged",
      "type": "event"
    },
    {
      "anonymous": false,
      "inputs": [
        {
          "indexed": true,
          "internalType": "address",
          "name": "previousOwner",
          "type": "address"
        },
        {
          "indexed": true,
          "internalType": "address",
          "name": "newOwner",
          "type": "address"
        }
      ],
      "name": "OwnershipTransferred",
      "type": "event"
    },
    {
      "anonymous": false,
      "inputs": [
        {
          "indexed": true,
          "internalType": "address",
          "name": "operator",
          "type": "address"
        },
        {
          "indexed": true,
          "internalType": "address",
          "name": "tokenOwner",
          "type": "address"
        },
        {
          "indexed": true,
          "internalType": "bytes32",
          "name": "tokenId",
          "type": "bytes32"
        }
      ],
      "name": "RevokedOperator",
      "type": "event"
    },
    {
      "anonymous": false,
      "inputs": [
        {
          "indexed": false,
          "internalType": "address",
          "name": "operator",
          "type": "address"
        },
        {
          "indexed": true,
          "internalType": "address",
          "name": "from",
          "type": "address"
        },
        {
          "indexed": true,
          "internalType": "address",
          "name": "to",
          "type": "address"
        },
        {
          "indexed": true,
          "internalType": "bytes32",
          "name": "tokenId",
          "type": "bytes32"
        },
        {
          "indexed": false,
          "internalType": "bool",
          "name": "force",
          "type": "bool"
        },
        {
          "indexed": false,
          "internalType": "bytes",
          "name": "data",
          "type": "bytes"
        }
      ],
      "name": "Transfer",
      "type": "event"
    },
    {
      "inputs": [
        {
          "internalType": "address",
          "name": "operator",
          "type": "address"
        },
        {
          "internalType": "bytes32",
          "name": "tokenId",
          "type": "bytes32"
        }
      ],
      "name": "authorizeOperator",
      "outputs": [],
      "stateMutability": "nonpayable",
      "type": "function"
    },
    {
      "inputs": [
        {
          "internalType": "address",
          "name": "tokenOwner",
          "type": "address"
        }
      ],
      "name": "balanceOf",
      "outputs": [
        {
          "internalType": "uint256",
          "name": "",
          "type": "uint256"
        }
      ],
      "stateMutability": "view",
      "type": "function"
    },
    {
      "inputs": [
        {
          "internalType": "bytes32[]",
          "name": "dataKeys",
          "type": "bytes32[]"
        }
      ],
      "name": "getData",
      "outputs": [
        {
          "internalType": "bytes[]",
          "name": "dataValues",
          "type": "bytes[]"
        }
      ],
      "stateMutability": "view",
      "type": "function"
    },
    {
      "inputs": [
        {
          "internalType": "bytes32",
          "name": "dataKey",
          "type": "bytes32"
        }
      ],
      "name": "getData",
      "outputs": [
        {
          "internalType": "bytes",
          "name": "dataValue",
          "type": "bytes"
        }
      ],
      "stateMutability": "view",
      "type": "function"
    },
    {
      "inputs": [
        {
          "internalType": "bytes32",
          "name": "tokenId",
          "type": "bytes32"
        }
      ],
      "name": "getOperatorsOf",
      "outputs": [
        {
          "internalType": "address[]",
          "name": "",
          "type": "address[]"
        }
      ],
      "stateMutability": "view",
      "type": "function"
    },
    {
      "inputs": [
        {
          "internalType": "address",
          "name": "operator",
          "type": "address"
        },
        {
          "internalType": "bytes32",
          "name": "tokenId",
          "type": "bytes32"
        }
      ],
      "name": "isOperatorFor",
      "outputs": [
        {
          "internalType": "bool",
          "name": "",
          "type": "bool"
        }
      ],
      "stateMutability": "view",
      "type": "function"
    },
    {
      "inputs": [
        {
          "internalType": "address",
          "name": "to",
          "type": "address"
        },
        {
          "internalType": "bytes32",
          "name": "tokenId",
          "type": "bytes32"
        },
        {
          "internalType": "bool",
          "name": "force",
          "type": "bool"
        },
        {
          "internalType": "bytes",
          "name": "data",
          "type": "bytes"
        }
      ],
      "name": "mint",
      "outputs": [],
      "stateMutability": "nonpayable",
      "type": "function"
    },
    {
      "inputs": [
        {
          "internalType": "address",
          "name": "to",
          "type": "address"
        },
        {
          "internalType": "bytes32[]",
          "name": "tokenIds",
          "type": "bytes32[]"
        },
        {
          "internalType": "bool",
          "name": "force",
          "type": "bool"
        },
        {
          "internalType": "bytes",
          "name": "data",
          "type": "bytes"
        }
      ],
      "name": "mintBatch",
      "outputs": [],
      "stateMutability": "nonpayable",
      "type": "function"
    },
    {
      "inputs": [],
      "name": "owner",
      "outputs": [
        {
          "internalType": "address",
          "name": "",
          "type": "address"
        }
      ],
      "stateMutability": "view",
      "type": "function"
    },
    {
      "inputs": [],
      "name": "renounceOwnership",
      "outputs": [],
      "stateMutability": "nonpayable",
      "type": "function"
    },
    {
      "inputs": [
        {
          "internalType": "address",
          "name": "operator",
          "type": "address"
        },
        {
          "internalType": "bytes32",
          "name": "tokenId",
          "type": "bytes32"
        }
      ],
      "name": "revokeOperator",
      "outputs": [],
      "stateMutability": "nonpayable",
      "type": "function"
    },
    {
      "inputs": [
        {
          "internalType": "bytes32[]",
          "name": "dataKeys",
          "type": "bytes32[]"
        },
        {
          "internalType": "bytes[]",
          "name": "dataValues",
          "type": "bytes[]"
        }
      ],
      "name": "setData",
      "outputs": [],
      "stateMutability": "nonpayable",
      "type": "function"
    },
    {
      "inputs": [
        {
          "internalType": "bytes32",
          "name": "dataKey",
          "type": "bytes32"
        },
        {
          "internalType": "bytes",
          "name": "dataValue",
          "type": "bytes"
        }
      ],
      "name": "setData",
      "outputs": [],
      "stateMutability": "nonpayable",
      "type": "function"
    },
    {
      "inputs": [
        {
          "internalType": "bytes4",
          "name": "interfaceId",
          "type": "bytes4"
        }
      ],
      "name": "supportsInterface",
      "outputs": [
        {
          "internalType": "bool",
          "name": "",
          "type": "bool"
        }
      ],
      "stateMutability": "view",
      "type": "function"
    },
    {
      "inputs": [
        {
          "internalType": "address",
          "name": "tokenOwner",
          "type": "address"
        }
      ],
      "name": "tokenIdsOf",
      "outputs": [
        {
          "internalType": "bytes32[]",
          "name": "",
          "type": "bytes32[]"
        }
      ],
      "stateMutability": "view",
      "type": "function"
    },
    {
      "inputs": [
        {
          "internalType": "bytes32",
          "name": "tokenId",
          "type": "bytes32"
        }
      ],
      "name": "tokenOwnerOf",
      "outputs": [
        {
          "internalType": "address",
          "name": "",
          "type": "address"
        }
      ],
      "stateMutability": "view",
      "type": "function"
    },
    {
      "inputs": [],
      "name": "totalSupply",
      "outputs": [
        {
          "internalType": "uint256",
          "name": "",
          "type": "uint256"
        }
      ],
      "stateMutability": "view",
      "type": "function"
    },
    {
      "inputs": [
        {
          "internalType": "address",
          "name": "from",
          "type": "address"
        },
        {
          "internalType": "address",
          "name": "to",
          "type": "address"
        },
        {
          "internalType": "bytes32",
          "name": "tokenId",
          "type": "bytes32"
        },
        {
          "internalType": "bool",
          "name": "force",
          "type": "bool"
        },
        {
          "internalType": "bytes",
          "name": "data",
          "type": "bytes"
        }
      ],
      "name": "transfer",
      "outputs": [],
      "stateMutability": "nonpayable",
      "type": "function"
    },
    {
      "inputs": [
        {
          "internalType": "address[]",
          "name": "from",
          "type": "address[]"
        },
        {
          "internalType": "address[]",
          "name": "to",
          "type": "address[]"
        },
        {
          "internalType": "bytes32[]",
          "name": "tokenId",
          "type": "bytes32[]"
        },
        {
          "internalType": "bool",
          "name": "force",
          "type": "bool"
        },
        {
          "internalType": "bytes[]",
          "name": "data",
          "type": "bytes[]"
        }
      ],
      "name": "transferBatch",
      "outputs": [],
      "stateMutability": "nonpayable",
      "type": "function"
    },
    {
      "inputs": [
        {
          "internalType": "address",
          "name": "newOwner",
          "type": "address"
        }
      ],
      "name": "transferOwnership",
      "outputs": [],
      "stateMutability": "nonpayable",
      "type": "function"
    }
  ],
  "bytecode": "0x60806040523480156200001157600080fd5b5060405162003cc338038062003cc3833981810160405281019062000037919062000585565b8282828282828062000054816200014760201b62000d0f1760201c565b50620000c47feafec4d89fa9619884b60000a4d96624a38f7ac2d8d9a604ecf07c12c77e480c60001b6040518060400160405280600481526020017fa4d96624000000000000000000000000000000000000000000000000000000008152506200024f60201b62000e0e1760201c565b620000fe7fdeba1e292f8ba88238e10ab3c7f88bd4be4fac56cad5194b6ecceaf653468af160001b846200024f60201b62000e0e1760201c565b620001387f2f0a68ab07768e01943a599e73362a0e17a63a72e94dd2e384d2c1d4db93275660001b836200024f60201b62000e0e1760201c565b50505050505050505062000684565b62000157620002aa60201b60201c565b73ffffffffffffffffffffffffffffffffffffffff168173ffffffffffffffffffffffffffffffffffffffff16146200024c5760008060009054906101000a900473ffffffffffffffffffffffffffffffffffffffff169050816000806101000a81548173ffffffffffffffffffffffffffffffffffffffff021916908373ffffffffffffffffffffffffffffffffffffffff1602179055508173ffffffffffffffffffffffffffffffffffffffff168173ffffffffffffffffffffffffffffffffffffffff167f8be0079c531659141344cd1fd0a4f28419497f9722a3daafe3b4186f6b6457e060405160405180910390a3505b50565b8060016000848152602001908152602001600020908051906020019062000278929190620002d3565b50817fcdf4e344c0d23d4cdd0474039d176c55b19d531070dbe17856bfb993a5b5720b60405160405180910390a25050565b60008060009054906101000a900473ffffffffffffffffffffffffffffffffffffffff16905090565b828054620002e1906200064e565b90600052602060002090601f01602090048101928262000305576000855562000351565b82601f106200032057805160ff191683800117855562000351565b8280016001018555821562000351579182015b828111156200035057825182559160200191906001019062000333565b5b50905062000360919062000364565b5090565b5b808211156200037f57600081600090555060010162000365565b5090565b6000604051905090565b600080fd5b600080fd5b600080fd5b600080fd5b6000601f19601f8301169050919050565b7f4e487b7100000000000000000000000000000000000000000000000000000000600052604160045260246000fd5b620003ec82620003a1565b810181811067ffffffffffffffff821117156200040e576200040d620003b2565b5b80604052505050565b60006200042362000383565b9050620004318282620003e1565b919050565b600067ffffffffffffffff821115620004545762000453620003b2565b5b6200045f82620003a1565b9050602081019050919050565b60005b838110156200048c5780820151818401526020810190506200046f565b838111156200049c576000848401525b50505050565b6000620004b9620004b38462000436565b62000417565b905082815260208101848484011115620004d857620004d76200039c565b5b620004e58482856200046c565b509392505050565b600082601f83011262000505576200050462000397565b5b815162000517848260208601620004a2565b91505092915050565b600073ffffffffffffffffffffffffffffffffffffffff82169050919050565b60006200054d8262000520565b9050919050565b6200055f8162000540565b81146200056b57600080fd5b50565b6000815190506200057f8162000554565b92915050565b600080600060608486031215620005a157620005a06200038d565b5b600084015167ffffffffffffffff811115620005c257620005c162000392565b5b620005d086828701620004ed565b935050602084015167ffffffffffffffff811115620005f457620005f362000392565b5b6200060286828701620004ed565b925050604062000615868287016200056e565b9150509250925092565b7f4e487b7100000000000000000000000000000000000000000000000000000000600052602260045260246000fd5b600060028204905060018216806200066757607f821691505b602082108114156200067e576200067d6200061f565b5b50919050565b61362f80620006946000396000f3fe608060405234801561001057600080fd5b506004361061012c5760003560e01c806354f6127f116100ad5780638da5cb5b116100715780638da5cb5b14610351578063a3b261f21461036f578063af255b611461039f578063cf5182ba146103bb578063f2fde38b146103d75761012c565b806354f6127f146102af57806355908868146102df57806370a08231146102fb578063715018a61461032b5780637f23690c146103355761012c565b8063217b2270116100f4578063217b2270146101d35780632a3654a41461020357806349a6078d146102335780634e3e6e9c14610263578063511b6952146102935761012c565b806301ffc9a7146101315780630b0c6d821461016157806314a6e2931461017d57806315ea75e01461019957806318160ddd146101b5575b600080fd5b61014b600480360381019061014691906120ca565b6103f3565b6040516101589190612112565b60405180910390f35b61017b600480360381019061017691906121c1565b610454565b005b610197600480360381019061019291906124f0565b610595565b005b6101b360048036038101906101ae91906125ef565b610640565b005b6101bd610696565b6040516101ca91906126ac565b60405180910390f35b6101ed60048036038101906101e891906126c7565b6106a0565b6040516101fa9190612703565b60405180910390f35b61021d600480360381019061021891906121c1565b610754565b60405161022a9190612112565b60405180910390f35b61024d600480360381019061024891906126c7565b610771565b60405161025a91906127dc565b60405180910390f35b61027d600480360381019061027891906127fe565b61079e565b60405161028a9190612991565b60405180910390f35b6102ad60048036038101906102a891906129b3565b610854565b005b6102c960048036038101906102c491906126c7565b6108c2565b6040516102d69190612a94565b60405180910390f35b6102f960048036038101906102f49190612b79565b6108d4565b005b61031560048036038101906103109190612c64565b6109c7565b60405161032291906126ac565b60405180910390f35b610333610a17565b005b61034f600480360381019061034a9190612c91565b610a2b565b005b610359610a41565b6040516103669190612703565b60405180910390f35b61038960048036038101906103849190612c64565b610a6a565b6040516103969190612dab565b60405180910390f35b6103b960048036038101906103b49190612dcd565b610aba565b005b6103d560048036038101906103d091906121c1565b610ad4565b005b6103f160048036038101906103ec9190612c64565b610c8b565b005b6000634939914560e01b7bffffffffffffffffffffffffffffffffffffffffffffffffffffffff1916827bffffffffffffffffffffffffffffffffffffffffffffffffffffffff1916148061044d575061044c82610e67565b5b9050919050565b600061045f826106a0565b9050600061046b610ec8565b90508073ffffffffffffffffffffffffffffffffffffffff168273ffffffffffffffffffffffffffffffffffffffff16146104e1578183826040517f5b271ea20000000000000000000000000000000000000000000000000000000081526004016104d893929190612e5f565b60405180910390fd5b600073ffffffffffffffffffffffffffffffffffffffff168473ffffffffffffffffffffffffffffffffffffffff161415610548576040517f9577b8b300000000000000000000000000000000000000000000000000000000815260040160405180910390fd5b8373ffffffffffffffffffffffffffffffffffffffff168273ffffffffffffffffffffffffffffffffffffffff161415610583575050610591565b61058e848385610ed0565b50505b5050565b61059d610f56565b80518251146105e1576040517f08c379a00000000000000000000000000000000000000000000000000000000081526004016105d890612f19565b60405180910390fd5b60005b825181101561063b5761062b83828151811061060357610602612f39565b5b602002602001015183838151811061061e5761061d612f39565b5b6020026020010151610fcd565b610634816110a7565b90506105e4565b505050565b610648610f56565b60005b8484905081101561068e5761067b8686868481811061066d5761066c612f39565b5b9050602002013585856110b4565b808061068690612f97565b91505061064b565b505050505050565b6000600254905090565b6000806003600084815260200190815260200160002060009054906101000a900473ffffffffffffffffffffffffffffffffffffffff169050600073ffffffffffffffffffffffffffffffffffffffff168173ffffffffffffffffffffffffffffffffffffffff16141561074b57826040517fae8f9a360000000000000000000000000000000000000000000000000000000081526004016107429190612fe0565b60405180910390fd5b80915050919050565b600061075f826112a2565b61076983836112ef565b905092915050565b606061077c826112a2565b61079760056000848152602001908152602001600020611361565b9050919050565b6060815167ffffffffffffffff8111156107bb576107ba612217565b5b6040519080825280602002602001820160405280156107ee57816020015b60608152602001906001900390816107d95790505b50905060005b825181101561084e5761082083828151811061081357610812612f39565b5b6020026020010151611382565b82828151811061083357610832612f39565b5b6020026020010181905250610847816110a7565b90506107f4565b50919050565b600061085e610ec8565b905061086a81856112ef565b6108ad5783816040517f1294d2a90000000000000000000000000000000000000000000000000000000081526004016108a4929190612ffb565b60405180910390fd5b6108ba8686868686611427565b505050505050565b60606108cd82611382565b9050919050565b835185511415806108e757508251855114155b806108f457508051855114155b1561092b576040517f93a8311900000000000000000000000000000000000000000000000000000000815260040160405180910390fd5b60005b85518110156109bf576109ac86828151811061094d5761094c612f39565b5b602002602001015186838151811061096857610967612f39565b5b602002602001015186848151811061098357610982612f39565b5b60200260200101518686868151811061099f5761099e612f39565b5b6020026020010151610854565b80806109b790612f97565b91505061092e565b505050505050565b6000610a10600460008473ffffffffffffffffffffffffffffffffffffffff1673ffffffffffffffffffffffffffffffffffffffff1681526020019081526020016000206116b2565b9050919050565b610a1f610f56565b610a296000610d0f565b565b610a33610f56565b610a3d8282610fcd565b5050565b60008060009054906101000a900473ffffffffffffffffffffffffffffffffffffffff16905090565b6060610ab3600460008473ffffffffffffffffffffffffffffffffffffffff1673ffffffffffffffffffffffffffffffffffffffff1681526020019081526020016000206116c7565b9050919050565b610ac2610f56565b610ace848484846110b4565b50505050565b6000610adf826106a0565b90506000610aeb610ec8565b90508073ffffffffffffffffffffffffffffffffffffffff168273ffffffffffffffffffffffffffffffffffffffff1614610b61578183826040517f5b271ea2000000000000000000000000000000000000000000000000000000008152600401610b5893929190612e5f565b60405180910390fd5b600073ffffffffffffffffffffffffffffffffffffffff168473ffffffffffffffffffffffffffffffffffffffff161415610bc8576040517f9577b8b300000000000000000000000000000000000000000000000000000000815260040160405180910390fd5b8373ffffffffffffffffffffffffffffffffffffffff168273ffffffffffffffffffffffffffffffffffffffff161415610c03575050610c87565b610c2884600560008681526020019081526020016000206116dc90919063ffffffff16565b50828273ffffffffffffffffffffffffffffffffffffffff168573ffffffffffffffffffffffffffffffffffffffff167f34b797fc5a526f7bf1d2b5de25f6564fd85ae364e3ee939aee7c1ac27871a98860405160405180910390a450505b5050565b610c93610f56565b600073ffffffffffffffffffffffffffffffffffffffff168173ffffffffffffffffffffffffffffffffffffffff161415610d03576040517f08c379a0000000000000000000000000000000000000000000000000000000008152600401610cfa90613096565b60405180910390fd5b610d0c81610d0f565b50565b610d17610a41565b73ffffffffffffffffffffffffffffffffffffffff168173ffffffffffffffffffffffffffffffffffffffff1614610e0b5760008060009054906101000a900473ffffffffffffffffffffffffffffffffffffffff169050816000806101000a81548173ffffffffffffffffffffffffffffffffffffffff021916908373ffffffffffffffffffffffffffffffffffffffff1602179055508173ffffffffffffffffffffffffffffffffffffffff168173ffffffffffffffffffffffffffffffffffffffff167f8be0079c531659141344cd1fd0a4f28419497f9722a3daafe3b4186f6b6457e060405160405180910390a3505b50565b80600160008481526020019081526020016000209080519060200190610e35929190611fbb565b50817fcdf4e344c0d23d4cdd0474039d176c55b19d531070dbe17856bfb993a5b5720b60405160405180910390a25050565b600063714df77c60e01b7bffffffffffffffffffffffffffffffffffffffffffffffffffffffff1916827bffffffffffffffffffffffffffffffffffffffffffffffffffffffff19161480610ec15750610ec08261170c565b5b9050919050565b600033905090565b610ef5836005600084815260200190815260200160002061177690919063ffffffff16565b50808273ffffffffffffffffffffffffffffffffffffffff168473ffffffffffffffffffffffffffffffffffffffff167f17d5389f6ab6adb2647dfa0aa365c323d37adacc30b33a65310b6158ce1373d560405160405180910390a4505050565b3373ffffffffffffffffffffffffffffffffffffffff16610f75610a41565b73ffffffffffffffffffffffffffffffffffffffff1614610fcb576040517f08c379a0000000000000000000000000000000000000000000000000000000008152600401610fc290613102565b60405180910390fd5b565b7fdeba1e292f8ba88238e10ab3c7f88bd4be4fac56cad5194b6ecceaf653468af160001b821415611033576040517f08c379a000000000000000000000000000000000000000000000000000000000815260040161102a90613194565b60405180910390fd5b7f2f0a68ab07768e01943a599e73362a0e17a63a72e94dd2e384d2c1d4db93275660001b821415611099576040517f08c379a000000000000000000000000000000000000000000000000000000000815260040161109090613226565b60405180910390fd5b6110a38282610e0e565b5050565b6000600182019050919050565b600073ffffffffffffffffffffffffffffffffffffffff168473ffffffffffffffffffffffffffffffffffffffff16141561111b576040517f24ecef4d00000000000000000000000000000000000000000000000000000000815260040160405180910390fd5b611124836117a6565b1561116657826040517f34c7b51100000000000000000000000000000000000000000000000000000000815260040161115d9190612fe0565b60405180910390fd5b6000611170610ec8565b905061117e60008686611812565b6111cf84600460008873ffffffffffffffffffffffffffffffffffffffff1673ffffffffffffffffffffffffffffffffffffffff1681526020019081526020016000206118b790919063ffffffff16565b50846003600086815260200190815260200160002060006101000a81548173ffffffffffffffffffffffffffffffffffffffff021916908373ffffffffffffffffffffffffffffffffffffffff160217905550838573ffffffffffffffffffffffffffffffffffffffff16600073ffffffffffffffffffffffffffffffffffffffff167fb333c813a7426a7a11e2b190cad52c44119421594b47f6f32ace6d8c7207b2bf84878760405161128593929190613246565b60405180910390a461129b6000868686866118ce565b5050505050565b6112ab816117a6565b6112ec57806040517fae8f9a360000000000000000000000000000000000000000000000000000000081526004016112e39190612fe0565b60405180910390fd5b50565b6000806112fb836106a0565b90508073ffffffffffffffffffffffffffffffffffffffff168473ffffffffffffffffffffffffffffffffffffffff16148061135857506113578460056000868152602001908152602001600020611a7090919063ffffffff16565b5b91505092915050565b6060600061137183600001611aa0565b905060608190508092505050919050565b60606001600083815260200190815260200160002080546113a2906132b3565b80601f01602080910402602001604051908101604052809291908181526020018280546113ce906132b3565b801561141b5780601f106113f05761010080835404028352916020019161141b565b820191906000526020600020905b8154815290600101906020018083116113fe57829003601f168201915b50505050509050919050565b6000611432846106a0565b90508573ffffffffffffffffffffffffffffffffffffffff168173ffffffffffffffffffffffffffffffffffffffff16146114a8578084876040517f5b271ea200000000000000000000000000000000000000000000000000000000815260040161149f93929190612e5f565b60405180910390fd5b600073ffffffffffffffffffffffffffffffffffffffff168573ffffffffffffffffffffffffffffffffffffffff16141561150f576040517f24ecef4d00000000000000000000000000000000000000000000000000000000815260040160405180910390fd5b6000611519610ec8565b9050611526878787611812565b6115308786611afc565b61158185600460008a73ffffffffffffffffffffffffffffffffffffffff1673ffffffffffffffffffffffffffffffffffffffff168152602001908152602001600020611b6990919063ffffffff16565b506115d385600460008973ffffffffffffffffffffffffffffffffffffffff1673ffffffffffffffffffffffffffffffffffffffff1681526020019081526020016000206118b790919063ffffffff16565b50856003600087815260200190815260200160002060006101000a81548173ffffffffffffffffffffffffffffffffffffffff021916908373ffffffffffffffffffffffffffffffffffffffff160217905550848673ffffffffffffffffffffffffffffffffffffffff168873ffffffffffffffffffffffffffffffffffffffff167fb333c813a7426a7a11e2b190cad52c44119421594b47f6f32ace6d8c7207b2bf84888860405161168893929190613246565b60405180910390a461169c87878786611b80565b6116a987878787876118ce565b50505050505050565b60006116c082600001611c7e565b9050919050565b60606116d582600001611aa0565b9050919050565b6000611704836000018373ffffffffffffffffffffffffffffffffffffffff1660001b611c8f565b905092915050565b60007f01ffc9a7000000000000000000000000000000000000000000000000000000007bffffffffffffffffffffffffffffffffffffffffffffffffffffffff1916827bffffffffffffffffffffffffffffffffffffffffffffffffffffffff1916149050919050565b600061179e836000018373ffffffffffffffffffffffffffffffffffffffff1660001b611cff565b905092915050565b60008073ffffffffffffffffffffffffffffffffffffffff166003600084815260200190815260200160002060009054906101000a900473ffffffffffffffffffffffffffffffffffffffff1673ffffffffffffffffffffffffffffffffffffffff1614159050919050565b600073ffffffffffffffffffffffffffffffffffffffff168373ffffffffffffffffffffffffffffffffffffffff1614156118625760016002600082825461185a91906132e5565b925050819055505b600073ffffffffffffffffffffffffffffffffffffffff168273ffffffffffffffffffffffffffffffffffffffff1614156118b2576001600260008282546118aa919061333b565b925050819055505b505050565b60006118c68360000183611c8f565b905092915050565b6118df84636bb56a1460e01b611e13565b156119ca576000858585846040516020016118fd9493929190613414565b60405160208183030381529060405290508473ffffffffffffffffffffffffffffffffffffffff16636bb56a147fc7a120a42b6057a0cbed111fbbfbd52fcd96748c04394f77fc2c3adbe0391e0160001b836040518363ffffffff1660e01b815260040161196c92919061345e565b600060405180830381600087803b15801561198657600080fd5b505af115801561199a573d6000803e3d6000fd5b505050506040513d6000823e3d601f19601f820116820180604052508101906119c391906134fe565b5050611a69565b81611a685760008473ffffffffffffffffffffffffffffffffffffffff163b14611a2b57836040517f4349776d000000000000000000000000000000000000000000000000000000008152600401611a229190612703565b60405180910390fd5b836040517f03173137000000000000000000000000000000000000000000000000000000008152600401611a5f9190612703565b60405180910390fd5b5b5050505050565b6000611a98836000018373ffffffffffffffffffffffffffffffffffffffff1660001b611f3e565b905092915050565b606081600001805480602002602001604051908101604052809291908181526020018280548015611af057602002820191906000526020600020905b815481526020019060010190808311611adc575b50505050509050919050565b60006005600083815260200190815260200160002090506000611b1e82611f61565b905060005b81811015611b62576000611b41600085611f7690919063ffffffff16565b9050611b4e818787610ed0565b508080611b5a90612f97565b915050611b23565b5050505050565b6000611b788360000183611cff565b905092915050565b611b9184636bb56a1460e01b611e13565b15611c7857600084848484604051602001611baf9493929190613414565b60405160208183030381529060405290508473ffffffffffffffffffffffffffffffffffffffff16636bb56a147f3724c94f0815e936299cca424da4140752198e0beb7931a6e0925d11bc97544c60001b836040518363ffffffff1660e01b8152600401611c1e92919061345e565b600060405180830381600087803b158015611c3857600080fd5b505af1158015611c4c573d6000803e3d6000fd5b505050506040513d6000823e3d601f19601f82011682018060405250810190611c7591906134fe565b50505b50505050565b600081600001805490509050919050565b6000611c9b8383611f3e565b611cf4578260000182908060018154018082558091505060019003906000526020600020016000909190919091505582600001805490508360010160008481526020019081526020016000208190555060019050611cf9565b600090505b92915050565b60008083600101600084815260200190815260200160002054905060008114611e07576000600182611d31919061333b565b9050600060018660000180549050611d49919061333b565b9050818114611db8576000866000018281548110611d6a57611d69612f39565b5b9060005260206000200154905080876000018481548110611d8e57611d8d612f39565b5b90600052602060002001819055508387600101600083815260200190815260200160002081905550505b85600001805480611dcc57611dcb613547565b5b600190038181906000526020600020016000905590558560010160008681526020019081526020016000206000905560019350505050611e0d565b60009150505b92915050565b6000806301ffc9a760e01b83604051602401611e2f9190613585565b604051602081830303815290604052907bffffffffffffffffffffffffffffffffffffffffffffffffffffffff19166020820180517bffffffffffffffffffffffffffffffffffffffffffffffffffffffff838183161783525050505090506000808573ffffffffffffffffffffffffffffffffffffffff1661753084604051611eb991906135a0565b6000604051808303818686fa925050503d8060008114611ef5576040519150601f19603f3d011682016040523d82523d6000602084013e611efa565b606091505b5091509150602081511015611f155760009350505050611f38565b818015611f32575080806020019051810190611f3191906135cc565b5b93505050505b92915050565b600080836001016000848152602001908152602001600020541415905092915050565b6000611f6f82600001611c7e565b9050919050565b6000611f858360000183611f90565b60001c905092915050565b6000826000018281548110611fa857611fa7612f39565b5b9060005260206000200154905092915050565b828054611fc7906132b3565b90600052602060002090601f016020900481019282611fe95760008555612030565b82601f1061200257805160ff1916838001178555612030565b82800160010185558215612030579182015b8281111561202f578251825591602001919060010190612014565b5b50905061203d9190612041565b5090565b5b8082111561205a576000816000905550600101612042565b5090565b6000604051905090565b600080fd5b600080fd5b60007fffffffff0000000000000000000000000000000000000000000000000000000082169050919050565b6120a781612072565b81146120b257600080fd5b50565b6000813590506120c48161209e565b92915050565b6000602082840312156120e0576120df612068565b5b60006120ee848285016120b5565b91505092915050565b60008115159050919050565b61210c816120f7565b82525050565b60006020820190506121276000830184612103565b92915050565b600073ffffffffffffffffffffffffffffffffffffffff82169050919050565b60006121588261212d565b9050919050565b6121688161214d565b811461217357600080fd5b50565b6000813590506121858161215f565b92915050565b6000819050919050565b61219e8161218b565b81146121a957600080fd5b50565b6000813590506121bb81612195565b92915050565b600080604083850312156121d8576121d7612068565b5b60006121e685828601612176565b92505060206121f7858286016121ac565b9150509250929050565b600080fd5b6000601f19601f8301169050919050565b7f4e487b7100000000000000000000000000000000000000000000000000000000600052604160045260246000fd5b61224f82612206565b810181811067ffffffffffffffff8211171561226e5761226d612217565b5b80604052505050565b600061228161205e565b905061228d8282612246565b919050565b600067ffffffffffffffff8211156122ad576122ac612217565b5b602082029050602081019050919050565b600080fd5b60006122d66122d184612292565b612277565b905080838252602082019050602084028301858111156122f9576122f86122be565b5b835b81811015612322578061230e88826121ac565b8452602084019350506020810190506122fb565b5050509392505050565b600082601f83011261234157612340612201565b5b81356123518482602086016122c3565b91505092915050565b600067ffffffffffffffff82111561237557612374612217565b5b602082029050602081019050919050565b600080fd5b600067ffffffffffffffff8211156123a6576123a5612217565b5b6123af82612206565b9050602081019050919050565b82818337600083830152505050565b60006123de6123d98461238b565b612277565b9050828152602081018484840111156123fa576123f9612386565b5b6124058482856123bc565b509392505050565b600082601f83011261242257612421612201565b5b81356124328482602086016123cb565b91505092915050565b600061244e6124498461235a565b612277565b90508083825260208201905060208402830185811115612471576124706122be565b5b835b818110156124b857803567ffffffffffffffff81111561249657612495612201565b5b8086016124a3898261240d565b85526020850194505050602081019050612473565b5050509392505050565b600082601f8301126124d7576124d6612201565b5b81356124e784826020860161243b565b91505092915050565b6000806040838503121561250757612506612068565b5b600083013567ffffffffffffffff8111156125255761252461206d565b5b6125318582860161232c565b925050602083013567ffffffffffffffff8111156125525761255161206d565b5b61255e858286016124c2565b9150509250929050565b600080fd5b60008083601f84011261258357612582612201565b5b8235905067ffffffffffffffff8111156125a05761259f612568565b5b6020830191508360208202830111156125bc576125bb6122be565b5b9250929050565b6125cc816120f7565b81146125d757600080fd5b50565b6000813590506125e9816125c3565b92915050565b60008060008060006080868803121561260b5761260a612068565b5b600061261988828901612176565b955050602086013567ffffffffffffffff81111561263a5761263961206d565b5b6126468882890161256d565b94509450506040612659888289016125da565b925050606086013567ffffffffffffffff81111561267a5761267961206d565b5b6126868882890161240d565b9150509295509295909350565b6000819050919050565b6126a681612693565b82525050565b60006020820190506126c1600083018461269d565b92915050565b6000602082840312156126dd576126dc612068565b5b60006126eb848285016121ac565b91505092915050565b6126fd8161214d565b82525050565b600060208201905061271860008301846126f4565b92915050565b600081519050919050565b600082825260208201905092915050565b6000819050602082019050919050565b6127538161214d565b82525050565b6000612765838361274a565b60208301905092915050565b6000602082019050919050565b60006127898261271e565b6127938185612729565b935061279e8361273a565b8060005b838110156127cf5781516127b68882612759565b97506127c183612771565b9250506001810190506127a2565b5085935050505092915050565b600060208201905081810360008301526127f6818461277e565b905092915050565b60006020828403121561281457612813612068565b5b600082013567ffffffffffffffff8111156128325761283161206d565b5b61283e8482850161232c565b91505092915050565b600081519050919050565b600082825260208201905092915050565b6000819050602082019050919050565b600081519050919050565b600082825260208201905092915050565b60005b838110156128ad578082015181840152602081019050612892565b838111156128bc576000848401525b50505050565b60006128cd82612873565b6128d7818561287e565b93506128e781856020860161288f565b6128f081612206565b840191505092915050565b600061290783836128c2565b905092915050565b6000602082019050919050565b600061292782612847565b6129318185612852565b93508360208202850161294385612863565b8060005b8581101561297f578484038952815161296085826128fb565b945061296b8361290f565b925060208a01995050600181019050612947565b50829750879550505050505092915050565b600060208201905081810360008301526129ab818461291c565b905092915050565b600080600080600060a086880312156129cf576129ce612068565b5b60006129dd88828901612176565b95505060206129ee88828901612176565b94505060406129ff888289016121ac565b9350506060612a10888289016125da565b925050608086013567ffffffffffffffff811115612a3157612a3061206d565b5b612a3d8882890161240d565b9150509295509295909350565b600082825260208201905092915050565b6000612a6682612873565b612a708185612a4a565b9350612a8081856020860161288f565b612a8981612206565b840191505092915050565b60006020820190508181036000830152612aae8184612a5b565b905092915050565b600067ffffffffffffffff821115612ad157612ad0612217565b5b602082029050602081019050919050565b6000612af5612af084612ab6565b612277565b90508083825260208201905060208402830185811115612b1857612b176122be565b5b835b81811015612b415780612b2d8882612176565b845260208401935050602081019050612b1a565b5050509392505050565b600082601f830112612b6057612b5f612201565b5b8135612b70848260208601612ae2565b91505092915050565b600080600080600060a08688031215612b9557612b94612068565b5b600086013567ffffffffffffffff811115612bb357612bb261206d565b5b612bbf88828901612b4b565b955050602086013567ffffffffffffffff811115612be057612bdf61206d565b5b612bec88828901612b4b565b945050604086013567ffffffffffffffff811115612c0d57612c0c61206d565b5b612c198882890161232c565b9350506060612c2a888289016125da565b925050608086013567ffffffffffffffff811115612c4b57612c4a61206d565b5b612c57888289016124c2565b9150509295509295909350565b600060208284031215612c7a57612c79612068565b5b6000612c8884828501612176565b91505092915050565b60008060408385031215612ca857612ca7612068565b5b6000612cb6858286016121ac565b925050602083013567ffffffffffffffff811115612cd757612cd661206d565b5b612ce38582860161240d565b9150509250929050565b600081519050919050565b600082825260208201905092915050565b6000819050602082019050919050565b612d228161218b565b82525050565b6000612d348383612d19565b60208301905092915050565b6000602082019050919050565b6000612d5882612ced565b612d628185612cf8565b9350612d6d83612d09565b8060005b83811015612d9e578151612d858882612d28565b9750612d9083612d40565b925050600181019050612d71565b5085935050505092915050565b60006020820190508181036000830152612dc58184612d4d565b905092915050565b60008060008060808587031215612de757612de6612068565b5b6000612df587828801612176565b9450506020612e06878288016121ac565b9350506040612e17878288016125da565b925050606085013567ffffffffffffffff811115612e3857612e3761206d565b5b612e448782880161240d565b91505092959194509250565b612e598161218b565b82525050565b6000606082019050612e7460008301866126f4565b612e816020830185612e50565b612e8e60408301846126f4565b949350505050565b600082825260208201905092915050565b7f4b657973206c656e677468206e6f7420657175616c20746f2076616c7565732060008201527f6c656e6774680000000000000000000000000000000000000000000000000000602082015250565b6000612f03602683612e96565b9150612f0e82612ea7565b604082019050919050565b60006020820190508181036000830152612f3281612ef6565b9050919050565b7f4e487b7100000000000000000000000000000000000000000000000000000000600052603260045260246000fd5b7f4e487b7100000000000000000000000000000000000000000000000000000000600052601160045260246000fd5b6000612fa282612693565b91507fffffffffffffffffffffffffffffffffffffffffffffffffffffffffffffffff821415612fd557612fd4612f68565b5b600182019050919050565b6000602082019050612ff56000830184612e50565b92915050565b60006040820190506130106000830185612e50565b61301d60208301846126f4565b9392505050565b7f4f776e61626c653a206e6577206f776e657220697320746865207a65726f206160008201527f6464726573730000000000000000000000000000000000000000000000000000602082015250565b6000613080602683612e96565b915061308b82613024565b604082019050919050565b600060208201905081810360008301526130af81613073565b9050919050565b7f4f776e61626c653a2063616c6c6572206973206e6f7420746865206f776e6572600082015250565b60006130ec602083612e96565b91506130f7826130b6565b602082019050919050565b6000602082019050818103600083015261311b816130df565b9050919050565b7f4c5350343a2063616e6e6f74206564697420546f6b656e204e616d652061667460008201527f6572206465706c6f796d656e7400000000000000000000000000000000000000602082015250565b600061317e602d83612e96565b915061318982613122565b604082019050919050565b600060208201905081810360008301526131ad81613171565b9050919050565b7f4c5350343a2063616e6e6f74206564697420546f6b656e2053796d626f6c206160008201527f66746572206465706c6f796d656e740000000000000000000000000000000000602082015250565b6000613210602f83612e96565b915061321b826131b4565b604082019050919050565b6000602082019050818103600083015261323f81613203565b9050919050565b600060608201905061325b60008301866126f4565b6132686020830185612103565b818103604083015261327a8184612a5b565b9050949350505050565b7f4e487b7100000000000000000000000000000000000000000000000000000000600052602260045260246000fd5b600060028204905060018216806132cb57607f821691505b602082108114156132df576132de613284565b5b50919050565b60006132f082612693565b91506132fb83612693565b9250827fffffffffffffffffffffffffffffffffffffffffffffffffffffffffffffffff038211156133305761332f612f68565b5b828201905092915050565b600061334682612693565b915061335183612693565b92508282101561336457613363612f68565b5b828203905092915050565b60008160601b9050919050565b60006133878261336f565b9050919050565b60006133998261337c565b9050919050565b6133b16133ac8261214d565b61338e565b82525050565b6000819050919050565b6133d26133cd8261218b565b6133b7565b82525050565b600081905092915050565b60006133ee82612873565b6133f881856133d8565b935061340881856020860161288f565b80840191505092915050565b600061342082876133a0565b60148201915061343082866133a0565b60148201915061344082856133c1565b60208201915061345082846133e3565b915081905095945050505050565b60006040820190506134736000830185612e50565b81810360208301526134858184612a5b565b90509392505050565b60006134a161349c8461238b565b612277565b9050828152602081018484840111156134bd576134bc612386565b5b6134c884828561288f565b509392505050565b600082601f8301126134e5576134e4612201565b5b81516134f584826020860161348e565b91505092915050565b60006020828403121561351457613513612068565b5b600082015167ffffffffffffffff8111156135325761353161206d565b5b61353e848285016134d0565b91505092915050565b7f4e487b7100000000000000000000000000000000000000000000000000000000600052603160045260246000fd5b61357f81612072565b82525050565b600060208201905061359a6000830184613576565b92915050565b60006135ac82846133e3565b915081905092915050565b6000815190506135c6816125c3565b92915050565b6000602082840312156135e2576135e1612068565b5b60006135f0848285016135b7565b9150509291505056fea2646970667358221220dd746270b275059c5b55095070ec53b6bc89380bfab683c4d833f94607b291a664736f6c63430008090033",
  "linkReferences": {},
  "deployedLinkReferences": {}
}